:020000040800F2
:10000000501E00209D010008C3200008171D000895
:10001000C12000081F0700088D250008000000000F
:1000200000000000000000000000000005010008C2
:10003000210700080000000049010008C92000084D
:10004000B7010008B7010008B7010008B7010008B0
:10005000B7010008B7010008B7010008B7010008A0
:10006000B7010008B7010008B7010008B701000890
:10007000B7010008B7010008B7010008B701000880
:10008000B7010008B7010008B7010008B701000870
:10009000B7010008B7010008B7010008B701000860
:1000A000B7010008B7010008B7010008B701000850
:1000B00045210008512100085D210008B701000812
:1000C000B7010008B7010008B7010008B701000830
:1000D000B701000861250008B7010008B701000852
:1000E000B7010008B7010008B7010008DFF810D019
:1000F00000F0F4FA00480047A9260008AFF300809A
:10010000501E0020224B19680868B0E8F00F80F3F9
:100110000988BFF36F8F4FF0000080F311884EF015
:100120000D0E70470000000006480068006880F36C
:10013000088862B661B6BFF34F8FBFF36F8F00DFE1
:1001400000BF00BF08ED00E0EFF30980BFF36F8F41
:100150000F4B1A6820E9F00F106008B54FF05000FF
:1001600080F31188BFF34F8FBFF36F8F03F092FBC3
:100170004FF0000080F31188BDE808401968086856
:10018000B0E8F00F80F30988BFF36F8F704700BFAE
:1001900078000020EFF30580704700000648804794
:1001A00006480047FEE7FEE7FEE7FEE7FEE7FEE75C
:1001B000FEE7FEE7FEE7FEE741210008ED0000084C
:1001C000202A04DB203A21FA02F00021704721FAAC
:1001D00002F3D040C2F12002914008431946704713
:1001E00040EA01039B0703D009E008C9121F08C0B9
:1001F000042AFAD203E011F8013B00F8013B521E39
:10020000F9D27047D2B201E000F8012B491EFBD2AF
:1002100070470022F6E710B513460A460446194611
:10022000FFF7F0FF204610BDF0B480EA0102D40FC2
:100230004200B2EB410F02D20246084611464A0084
:1002400042D0C30DDDB2C1F3C752AD1A202D35DA4D
:10025000C1F3160141F4000204B15242C5F1200677
:1002600002FA06F12A411044B3EBD05F23D0C4B1A7
:10027000012DA0EBC35009DCF0BC4FF0004202EAB4
:10028000C352DBB200F5000000F09DB9400000F160
:10029000807000EBC350A0F1807040EAD17049003B
:1002A00009E0490841EAC071A0EBC35000F5000025
:1002B000400800EBC350F0BC00F07CB96142012261
:1002C00002EB4101001BF6E7F0BC704781F00041F2
:1002D000AAE780F00040A7E780EA010210B502F02B
:1002E0000043400022D04A001FD0010E01EB1261F2
:1002F000C0F35600C2F3560240F4000042F400027C
:10030000A0FB022000047F39140400D0401C50EAF6
:10031000124001D44000491EC2B20C0604EBD010BA
:10032000401C4008802A02D003E0002010BD20F0CD
:100330000100002900DA0020184310BD30B480EA23
:10034000010202F0004530F0004221F0004013D0DD
:1003500090B1C30DD40DC2F31601C0F31600E41A18
:1003600041F4000140F400027D34914201D3641C49
:1003700000E04900002C02DA30BC002070474FF446
:1003800000000023914201D3891A034340084FEA39
:100390004101F7D151B1914202D14FF0004105E046
:1003A00002D24FF0010101E06FF0010103EBC450F4
:1003B000284430BC00F0FEB8420005D0C0F3C7525C
:1003C0005242914201DC0020704700EBC15070475F
:1003D0002DE9FE4F81EA030404F0004421F00041BE
:1003E00000944FF0000B23F0004350EA01045ED06C
:1003F00052EA03045BD0C3F30A54C1F30A552C44F8
:10040000A4F2F3340194A0FB0254C1F3130141F4AC
:100410008011C3F3130343F4801301FB024400FB78
:10042000034E840A970A44EA815447EA8357A4FB9F
:10043000076802958D0A05FB07854FEA932C04FB9C
:100440000C542705029D4FEA065847EA1637B5EBCC
:1004500008056EEB070C870E920E47EA811742EAF9
:100460008312A7FB0201B6EB0B0164EB00042B0D1A
:1004700043EA0C335E1844EB1C50DA465146E7FB66
:100480000201C5F313044FEA0B3343EA14534FEA56
:100490000432019C43EA0603A4F10C040294009C7C
:1004A000CDE900B400F0CCF803B0BDE8F08F002037
:1004B0000146F9E770B521F0004303430CD0C1F3C6
:1004C0000A550024D5EB040564EB0403D617AD1AD6
:1004D000B34102DB0020014670BD201841EB025100
:1004E00070BD0EB540F2334102910021CDE90011FB
:1004F0000A460B4600F0A4F803B000BD00F000422D
:1005000020F00040C10DC0F3160040F400007F2928
:1005100001DA00207047962903DCC1F19601C8403A
:1005200001E096398840002AF4D04042704700F03C
:10053000004230F000400AD0C10D01F56071C0F3F7
:10054000160042EA0151C2084007114370470020DB
:100550000146704701F0004330B421F0004150EAF9
:10056000010206D00A0DA2F56072C1F31301002A40
:1005700002DC30BC00207047440F44EAC104C100D3
:10058000E01830BC00EBC25000F014B8002801DBCA
:10059000C0F10040002901DBC1F1004181427047F8
:1005A000002801DBC0F10040002901DBC1F100415E
:1005B000884270470029A8BF7047401C490008BF07
:1005C00020F00100704710B4B0FA80FC00FA0CF083
:1005D00050EA010404BF10BC704749B1CCF12004BB
:1005E00021FA04F411FA0CF118BF01212143084348
:1005F000A3EB0C01CB1D4FEA00614FEA102042BF74
:10060000002010BC704700EBC35010440029A4BF69
:1006100010BC7047401C490008BF20F0010010BC0E
:10062000704710B5141E73F1000408DA401C41F144
:10063000000192185B411A4301D120F0010010BD66
:100640002DE9F04D92469B4611B1B1FA81F202E0DC
:10065000B0FA80F22032904600F052F804460F467D
:1006600040EA0A0041EA0B0153465A46084313D0B8
:10067000114653EA010019D0C8F140025046FFF775
:100680009FFD05460E4650465946424600F038F852
:10069000084305D0012004E020463946BDE8F08D2E
:1006A0000020054346EAE0762C4337430A98630569
:1006B000E40AA0EB08000022FD0A44EA47540A308D
:1006C00002D500200146E9E7010510196941DDE97D
:1006D000084500196941BDE8F04DA2E7064C074DF9
:1006E00006E0E06840F0010394E807009847103402
:1006F000AC42F6D3FFF7FEFCD4440008F4440008F3
:10070000202A04DB203A00FA02F1002070479140D1
:10071000C2F1200320FA03F3194390407047FEE72B
:10072000704772B6FEE7000010B590F82110002463
:10073000022903D00421816301243DE001680A6895
:1007400022F00E020A6001680A6822F001020A60C3
:100750001A4A0168914201D1012121E0174A14325D
:10076000914201D110211BE0144A2832914201D15B
:10077000891515E0114A3C32914201D189140FE0EC
:100780000E4A5032914202D14FF4803108E00B4AB8
:100790006432914202D14FF4801101E04FF0807138
:1007A000064A083A5160012180F82110002180F8A2
:1007B0002010416B01B18847204610BD080002405F
:1007C0002DE9F84FDFF8B891002409F1040A0AF185
:1007D000040B23460F270BF1040EC9E00125A540A9
:1007E0002A40AA427DD1674ED1F804C0ACEB06087E
:1007F000B44532D014DCBCF1030F3AD009DCBCF1B3
:10080000000F2AD0BCF1010F1CD0BCF1020F31D176
:100810001DE0BCF1110F17D0BCF1120F2AD119E065
:10082000B8F5881F19D006DCB8F5803F15D0B8F5AB
:10083000801F1FD111E0B8F5001F0ED0B8F5041FBE
:1008400018D10AE0CB6815E0CB681B1D12E0CB681D
:1008500008330FE0CB680C330CE08B682BB1012B15
:100860004FF0080303D0456104E0042302E0056172
:1008700000E00023FF2A01D8064601E000F104064B
:100880004FEA840501D9A5F12005D6F8008007FAC2
:1008900005FC28EA0C0803FA05F548EA0508C6F83D
:1008A00000804D68ED0062D5374DAE6946F0010617
:1008B000AE61AD6924F0030605F001050095334DE6
:1008C00006EB050CDCF80850A607360F07FA06F809
:1008D00025EA0805DFF8B880404503D14FF000084D
:1008E00017E044E0DFF8AC80404502D14FF001084A
:1008F0000FE0DFF8A480404502D14FF0020808E085
:10090000DFF89880404502D14FF0030801E04FF036
:10091000040808FA06F848EA0508CCF808804D688B
:10092000D9F80060ED034D4601D5164300E096432B
:100930002E604D68DAF80060AD03554601D51643C8
:1009400000E096432E604D68DBF80060ED025D46E6
:1009500001D5164300E096432E604D68DEF8006036
:10096000AD02754601D5164300E096432E60641C27
:100970000D682A46E5407FF431AFBDE8F88F0000EE
:10098000000401400000111000100240000001406E
:1009900000080140000C014000100140001401401B
:1009A0000AB1016170470904FBE700000148806853
:1009B000704700003C000020024881680278114422
:1009C000816070473C000020074810B5016841F085
:1009D00010010160032000F07BF80F2000F006F802
:1009E00000F024F8002010BD0020024070B50D4D2D
:1009F00004464FF47A712878B1FBF0F00A4909688F
:100A0000B1FBF0F000F006FB48B9102C07D2002231
:100A10002146501E00F03CF800206C6070BD0120A3
:100A200070BD00003C000020480000200F4808B5C1
:100A3000816941F001018161816901F00101009149
:100A4000C16941F08051C161C069002200F080504D
:100A500000900F21901E00F01BF80548416821F01E
:100A6000E06141F00071416008BD000000100240EB
:100A700000000140002809DB00F01F020121914025
:100A80004009800000F1E020C0F80011704700002C
:100A9000F0B40E4B1B680C46C3F30223C3F10705E9
:100AA000042D00D90425191D072901D2002300E0D7
:100AB000DB1E012606FA05F1491E214099409E40A1
:100AC000761E16403143F0BC01F061BD0CED00E034
:100AD000064900F0070208684FF6FF03184040EA95
:100AE0000220034A10430860704700000CED00E04C
:100AF0000000FA05704700002DE9F0470F46050099
:100B000061D0434E306800F00700B84209D2306827
:100B100020F0070038433060306800F00700B8422A
:100B200051D128683B4C810712D5400703D5606836
:100B300040F4E06060602878000703D5606840F406
:100B4000605060606068A96820F0F0000843606051
:100B50002878C00728D06868012810D021680228AA
:100B600010D0890700292EDA616821F003010143C2
:100B70006160FFF71BFF804641F288390DE0216874
:100B80008903EFE78901EDE7FFF710FFA0EB08010C
:100B9000494502D90320BDE8F0876068696800F024
:100BA0000C00B0EB810FEFD1306800F00700B842C5
:100BB0000BD9306820F0070038433060306800F00F
:100BC0000700B84201D00120E5E72878400705D5A5
:100BD0006068E96820F4E0600843606028780007F6
:100BE00006D56068296920F4605040EAC100606061
:100BF00000F03EF86168084AC1F30311515CC84037
:100C00000649086006480068FFF7F0FE0020C2E7CA
:100C100000200240001002408044000848000020EC
:100C20004000002001490120C86470470000424292
:100C30000448054900684968044AC1F30221515C2F
:100C4000C84070474800002000100240904400084F
:100C50000448054900684968044AC1F3C221515C4F
:100C6000C84070474800002000100240904400082F
:100C700012A185B00FC98DE80F0014A0144A0068B6
:100C800004905168134801F00C03042B10D0082B7A
:100C90000ED1C1F38343C9031DF803000AD551687F
:100CA00004AAC1F34041515C0A4A5043B0FBF1F041
:100CB00005B0704708494843FAE7000002030405FD
:100CC000060708090A0B0C0D0E0F10100102000098
:100CD0000010024000127A0000093D0010B5044CDB
:100CE000A068000603D5FFF705FF8020A07210BDA5
:100CF000001002402DE9F84F040070D02078C04D5C
:100D0000C00749D06868C0F38100012807D068682F
:100D1000C0F38100022809D16868C00306D528689D
:100D2000800339D560680028E7D035E06068B0F509
:100D3000803F0BD010B1B0F5A02F11D0286820F45F
:100D400080302860286820F4802002E0286840F481
:100D500080302860606890B1FFF728FE06460AE000
:100D6000286840F480202860F0E700BFFFF71EFEEF
:100D7000801B642873D828688003F7D50CE0FFF740
:100D800015FE064605E000BFFFF710FE801B642835
:100D9000F0D828688003F7D420789A4E80074FF067
:100DA00001094FF0000839D5686810F00C0F07D022
:100DB0006868C0F38100022809D16868C00306D4BE
:100DC0002868800714D52069012808D110E020691F
:100DD000B0B1C6F80090FFF7E9FD074605E00AE16B
:100DE000FFF7E4FDC01B0228C4D828688007F7D5A8
:100DF0002868616920F0F80040EAC10028600DE031
:100E0000C6F80080FFF7D2FD074604E0FFF7CEFDED
:100E1000C01B022823D828688007F7D42078000751
:100E20002CD57948A169D9B1C0F80090FFF7BEFD73
:100E3000074604E0FFF7BAFDC01B02280FD8686A16
:100E40008007F7D571484FF4FA510068B0FBF1F014
:100E5000009000BF0098411E0091FAD20EE080E0A1
:100E6000C0F80080FFF7A2FD074604E0FFF79EFDF3
:100E7000C01B022875D8686A8007F7D4207840071D
:100E800060D5E8690027C00008D4E86940F08050C8
:100E9000E861E869012700F0805000905C48016833
:100EA000C90513D40168834641F480710160FFF7DE
:100EB0007DFD824606E000BFFFF778FDA0EB0A004B
:100EC00064284ED8DBF80000C005F5D5E06801289D
:100ED0000AD008B1052813D0286A20F00100286242
:100EE000286A20F0040002E0286A40F0010028622D
:100EF000E06841F2883B98B1FFF758FD82460BE06D
:100F0000286A40F004002862EEE700BFFFF74EFDBC
:100F1000A0EB0A0159455AD8286A8007F6D50CE09B
:100F2000FFF744FD824605E0FFF740FDA0EB0A0114
:100F300059454CD8286A8007F6D41FB1E86920F0DB
:100F40008050E861E06988B36968C1F381010229D2
:100F500044D00228C6F8608004D0FFF727FD04467D
:100F600038E034E0FFF722FD074604E0FFF71EFDFE
:100F7000C01B02282BD828688001F7D4206AB0F55E
:100F8000803F05D16868A16820F40030084368609C
:100F9000D4E908010843696821F4741108436860C2
:100FA000C6F86090FFF702FD044606E025E000BFAA
:100FB000FFF7FCFC001B022809D828688001F7D540
:100FC0001BE000BFFFF7F2FC001B022802D9032040
:100FD000BDE8F88F28688001F4D40EE00128F7D02E
:100FE0006868226A00F48031914204D1616A00F499
:100FF0007010884201D00120EAE70020E8E70000F5
:10100000001002400000424280044242480000209A
:101010000070004010B5401EB0F1807F01D3012068
:1010200010BD4FF0E02460610F21601701F0AFFAAE
:101030000020A06107202061002010BD704770478C
:1010400010B590F83C20012A22D0012280F83C20E3
:10105000CA688C6822F4407222434C6822F4806291
:1010600022430C6822F4006222430C6922F480526D
:1010700022434C6922F400522243C969002322F41E
:1010800080420A4301684A6480F83C30002010BD69
:10109000022010BD70B590F83C20012A26D0012412
:1010A00080F83C40022280F83D2003685A689D6821
:1010B00022F070060A6832435A600D4B02689A4269
:1010C00008D0B2F1804F05D00A4B9A4202D00A4BA9
:1010D0009A4204D1496825F080031943916080F851
:1010E0003D40002180F83C10084670BD022070BDD4
:1010F000002C014000040040000800402DE9F047AA
:10110000DFF87C814FF0400641F2111798F801009A
:1011100040F2444901064FF0000437D4594D4106CE
:1011200012D540F0800088F801000821284600F020
:1011300057FCA8F8060029680A6A22F400720A62BD
:101140002868016A016221E0A8F8064088F8016079
:10115000296828460A6A3A4207D10A6A12EA090F40
:1011600003D10A6822F001020A6001684C6201683A
:101170000A6A22F400720A6201680A6A42F4007282
:101180000A622868016841F00101016098F80000D6
:10119000010637D43C4D410612D540F0800088F856
:1011A00000000C21284600F01BFCA8F80400296868
:1011B0000A6A22F400520A622868016A016221E088
:1011C000A8F8044088F80060296828460A6A3A426C
:1011D00007D10A6A12EA090F03D10A6822F0010254
:1011E0000A6001684C6201680A6A22F400520A62CD
:1011F00001680A6A42F400520A622868016841F0F4
:101200000101016098F80200010614D41F4D410647
:1012100013D540F0800088F802000821284600F02D
:10122000DFFBA8F808002868016A21F40071016258
:101230002868016A0162BDE8F087A8F8084088F8CC
:1012400002602868016A394207D1016A11EA090F70
:1012500003D1016821F00101016028684462286817
:10126000016A21F4007101622868016A41F4007189
:1012700001622868016841F001010160DBE70000BC
:1012800050000020940100204C010020DC010020CF
:101290002DE9F041054690F83C000C46012836D077
:1012A000012085F83C008AB3042A42D02868082A25
:1012B00051D0D4E90023E168066A26F4805606621C
:1012C000C669076A26F4407646EA03234FF6FF769E
:1012D00006EA013123F4704319434FF4005627F412
:1012E000005306EA02321A43C16102622868C169EA
:1012F00021F44061C1612868C169A26841EA022104
:10130000C161002085F83C00BDE8F08101E00220C9
:10131000FAE7D4E90012E368286801F00BF82868BE
:10132000816921F00C01816128688169A2681143FB
:101330000FE0D4E90012E368286801F027F8286874
:10134000816921F44061816128688169A26841EA6C
:1013500002218161D5E7D4E90027267B016A21F4C7
:1013600080710162C169036A21F00301394321F0F0
:10137000F00731074FF4007647EA116123F4007358
:1013800006EA02221A43C16102622868C16921F09B
:101390000C01C1612868C169A2681143B0E710B5AA
:1013A000040003D094F83D0010B107E0012010BD07
:1013B000002084F83C00204600F01EF8022084F84B
:1013C0003D00211D206800F0CFFE012084F846007A
:1013D00084F83E0084F83F0084F8400084F841001F
:1013E00084F8420084F8430084F8440084F84500FF
:1013F00084F83D00002010BD00B585B000210091AB
:10140000019102910391026836493748B2F1804F49
:1014100022D0364B9A4245D1CA6942F00202CA61D3
:10142000CA6902F0020204928A6942F008028A61E3
:10143000896901F008010491012100916946FFF7D3
:10144000BFF9002205211D20FFF722FB5FF01D00E0
:10145000FFF710FB05B000BDCA6942F00102CA6186
:10146000CA6902F0010204928A6942F008028A61A4
:10147000896901F0080104914FF400610091694607
:10148000FFF79EF91A48416821F4407141F0E0618C
:1014900041F400714160002205211C20FFF7F8FA99
:1014A0001C20D5E7134B9A42D4D1CA6942F00402FA
:1014B000CA61CA6902F0040204928A6942F0080211
:1014C0008A61896901F008010491991500916946C2
:1014D000FFF776F9002205211E20FFF7D9FA1E201A
:1014E000B6E7000000100240000C0140000400407C
:1014F000000001400008004010B5044651B1042925
:101500000DD0082910D094F8410094F84520012806
:1015100011D10EE094F83E0094F84220F7E794F8D9
:101520003F0094F84320F2E794F8400094F84420F8
:10153000EDE7012A01D0012010BD022051B104299C
:1015400011D0082918D084F8410084F845000C29EE
:101550001BD136E084F83E0084F842002068C2685F
:1015600042F0020210E084F83F0084F84300206853
:10157000C26842F0040207E084F8400084F84400A6
:101580002068C26842F00802C2600122206800F0B0
:1015900021FE0E492068884208D0B0F1804F05D066
:1015A0000B49884202D00B49884204D1816801F07E
:1015B0000701062903D0016841F001010160002004
:1015C00010BD2068C26842F01002DDE7002C014027
:1015D000000400400008004070B50446006801693E
:1015E0004FF00005C943890715D4C168C94389076D
:1015F00011D4E91E016101202077206880698007ED
:10160000204602D0FFF77AFD04E000F0BFF8204644
:1016100000F062F9257720680169C943490717D4AA
:10162000C168C943490713D46FF004010161022066
:1016300020772068806910F4407F204602D0FFF7B1
:101640005DFD04E000F0A2F8204600F045F92577A2
:1016500020680169C943090716D4C168C94309074D
:1016600012D46FF008010161042020772068C0695E
:101670008007204602D0FFF741FD04E000F086F825
:10168000204600F029F9257720680169C943C90679
:1016900017D4C168C943C90613D46FF010010161A2
:1016A000082020772068C06910F4407F204602D0CF
:1016B000FFF724FD04E000F069F8204600F00CF983
:1016C000257720680169C943C90708D1C168C943A2
:1016D000C90704D1891E0161204600F04DF9206838
:1016E0000169C943090609D4C168C943090605D47B
:1016F0006FF0800101612046FFF7A0FC20680169BE
:10170000C943490609D4C168C943490605D46FF0E5
:1017100040010161204600F078F920680169C94361
:1017200089060BD4C168C943890607D46FF020012C
:1017300001612046BDE87040FFF781BC70BD00002C
:1017400000B585B0002100910191029103910068DC
:101750000B49884212D10B48816941F00401816133
:101760008069694600F0040004904FF4E060009046
:101770000220019003900448FFF722F805B000BD55
:10178000002C01400010024000080140704770B575
:10179000044690F83C000D4601280AD0012084F848
:1017A0003C0042B1042A18D0082A2AD00C2A4DD174
:1017B00039E0022070BD206800F01AFD20688169C0
:1017C00041F0080181612068816921F00401816193
:1017D000206881692A69114311E0206800F030FD1A
:1017E0002068816941F4006181612068816921F488
:1017F00080618161206881692A6941EA02218161F1
:1018000024E0206800F048FD2068C16941F008012B
:10181000C1612068C16921F00401C1612068C1690A
:101820002A69114311E0206800F062FD2068C16957
:1018300041F40061C1612068C16921F48061C16126
:101840002068C1692A6941EA0221C161002084F847
:101850003C0070BD10B5040003D094F83D0010B1F9
:1018600007E0012010BD002084F83C00204600F075
:101870001FF8022084F83D00211D206800F074FC50
:10188000012084F8460084F83E0084F83F0084F884
:10189000400084F8410084F8420084F8430084F852
:1018A000440084F8450084F83D00002010BD00008D
:1018B00008B500680649884208D10648816941F4A4
:1018C00000618161806900F40060009008BD000043
:1018D000002C0140001002407047000010B5044683
:1018E000022249B104290ED0082913D094F84100EE
:1018F000012816D0012010BD94F83E000128F9D12E
:1019000084F83E200FE094F83F000128F2D184F8DB
:101910003F2008E094F840000128EBD184F84020F3
:1019200001E084F841200122206800F053FC0F49B7
:101930002068884203D1426C42F40042426420682D
:10194000884208D0B0F1804F05D00949884202D0C2
:101950000849884204D1816801F00701062903D0B3
:10196000016841F001010160002010BD002C014020
:10197000000400400008004018484FF6FF7241780C
:101980000B0606D44B0604D5CB439B0616D0491C48
:10199000417001780B0606D44B0604D5CB439B0659
:1019A00011D0491C017081780B0606D44B0604D572
:1019B000CB439B060CD0491C8170704741F08001DD
:1019C0004170C280E5E741F0800101708280EAE762
:1019D00041F08001817002817047000050000020BA
:1019E0000246002041B1042909D008290AD00C2957
:1019F00001D11068006C70471068406B7047106828
:101A0000806B70471068C06B70477047704710F864
:101A1000391F40780843704770B502680446106863
:101A2000D168536910F00F0F52D003F0010501F493
:101A300090762E435FD0C20705D0CA0503D5E26B6E
:101A400042F00102E263420705D5DA0703D0E26BF8
:101A500042F00202E263820705D5DA0703D0E26BA7
:101A600042F00402E263020707D501F020022A4394
:101A700003D0E26B42F00802E263E26B002A33D04B
:101A8000800604D5880602D5204600F0C7FC2068F1
:101A90004069E16BC0F38010090700D428B32046E9
:101AA00000F0AEFC2068416949061AD5416921F071
:101AB00040014161606BA0B12D494163606BFEF74D
:101AC00033FE002810D0606B416BBDE870400847C2
:101AD000830610D58B060ED52046BDE8704000F079
:101AE0009DBC2046FFF792FF70BD2046FFF78EFF9A
:101AF0000020E06370BD03062BD50B0629D594F8B2
:101B000039002128F6D1A068B0F5805F01D12069A5
:101B1000B0B1206A411C2162216800784860E08CE5
:101B2000401E0004000CE084E4D12068C16821F06C
:101B30008001C1602068C16841F04001C16070BD92
:101B4000206A0088C0F308005060206A801C206270
:101B5000E5E74006F3D54806F1D5D168204621F0E7
:101B60004001D160202184F8391000F0D3F870BD15
:101B7000F123000870B5040004D094F83900002562
:101B800010B106E0012070BD84F83850204600F006
:101B900023F8242084F839002068C16821F400511A
:101BA000C160204600F080FC2068016921F490416A
:101BB00001612068416921F02A0141612068C16802
:101BC00041F40051C160E563202084F8390084F8B5
:101BD0003A00002070BD000030B585B000240094AC
:101BE00001940294039400681B49884232D11B4837
:101BF000816941F480418161816901F480410491EE
:101C0000816941F0080181618069154D00F008008B
:101C10000490402000900220019003200390694628
:101C20002846FEF7CDFD8020CDE900046946284610
:101C30000294FEF7C5FD0B48416841F0E06141F0B8
:101C400004014160002206212520FEF721FF252006
:101C5000FEF710FF05B030BD003801400010024013
:101C6000000C01400000014090F83A30202B22D1B6
:101C7000F9B1F2B190F83830012B1CD08162828525
:101C8000C2850021C163222280F83A2080F83810F2
:101C90000168CA6842F48072CA6001684A6942F009
:101CA00001024A610068C16841F02001C160002062
:101CB00070470120704702207047000030B500686F
:101CC000114988420CD1114841880A0408D40246BF
:101CD0004C0412784FF0000306D50A2A01D0438045
:101CE00030BD41F400410DE00D2A09D0C1F30D04CF
:101CF000074D491C89B22A5541801329EFD830BDC0
:101D000041F48041418030BD003801404C0000204A
:101D1000640200207047FEE710B5154A00211548FF
:101D200000F0E6FE144C124A0021206024321348D1
:101D300000F0DEFE0E4A606048320021104800F0DC
:101D4000D7FE0B4AA0606C3200210E4800F0D0FE96
:101D5000074AE060903200210B4800F0C9FE044AB7
:101D60002061B4320021094800F0C2FE606110BD5C
:101D7000A8430008ED29000824000020F9380008D5
:101D800001340008F9260008F1390008F939000883
:101D90002DE9F04385B000242F480094019402946B
:101DA0000394816941F010018161816901F01001A2
:101DB0000491816941F020018161816901F0200174
:101DC0000491816941F004018161816901F004019C
:101DD0000491816941F0080181618069012200F06C
:101DE00008001E4F5503049029463846FEF7D8FDDB
:101DF000DFF86C8000223E214046FEF7D1FDDFF87F
:101E00006490002238214846FEF7CAFD009501255E
:101E10000226CDE90256694638460195FEF7D0FC08
:101E2000CDE90054694640460294FEF7C9FC3E20C5
:101E3000CDE90005CDE9024669464046FEF7C0FC03
:101E40003820CDE90005CDE9024669464846FEF74F
:101E5000B7FC05B0BDE8F08300100240001001405F
:101E600000080140000C014010B592B000240F940E
:101E70001C2168461094FEF7CCF9202107A8FEF734
:101E8000C8F92948274901604721C0E9011444F6EF
:101E90002061C0E903148021C0E90541FFF7DAFCA5
:101EA00008B1FEF73EFC0F940FA91F481094FFF7EE
:101EB000F1F808B1FEF735FC6020CDE9000402948A
:101EC0000394049405940022694617480694FFF78A
:101ED0005EFC08B1FEF725FC042269461248FFF7B4
:101EE00056FC08B1FEF71DFC082269460E48FFF7B4
:101EF0004EFC08B1FEF715FC0794089409944FF4C2
:101F000000500A94CDE90B4007A907480E94FFF74B
:101F100097F808B1FEF705FC0348FFF711FC12B073
:101F200010BD0000002C0140040100207FB50025F9
:101F30001A4C0095019502954FF080400395206062
:101F400041F61F40C4E901054FF6FF70C4E90305DF
:101F50002046FFF724FA08B1FEF7E3FB0120CDE9A4
:101F6000005002950C2269460C480395FFF790F942
:101F700008B1FEF7D6FB0C210848FFF7BDFA206830
:101F8000C16841F00301C160002205211C20FEF759
:101F90007FFD1C20FEF76EFD7FBD00004C01002080
:101FA0007FB500251A4C00950195029517480395B9
:101FB000206041F61F40C4E901054FF6FF70C4E9F7
:101FC00003052046FFF7EBF908B1FEF7AAFB012055
:101FD000CDE900500295082269460D480395FFF7A8
:101FE00057F908B1FEF79DFB08210948FFF784FA6D
:101FF0002068C16841F00301C160002205211D2055
:10200000FEF746FD1D20FEF735FD7FBD00040040B4
:10201000940100207FB500251A4C0095019502958A
:1020200017480395206041F61F40C4E901054FF6AB
:10203000FF70C4E903052046FFF7B1F908B1FEF7C8
:1020400070FB0120CDE900500295082269460D4839
:102050000395FFF71DF908B1FEF763FB0821094856
:10206000FFF74AFA2068C16841F00301C16000220D
:1020700005211E20FEF70CFD1E20FEF7FBFC7FBD98
:1020800000080040DC0100200C4810B50A4901603E
:102090004FF4E1314160002181600422C160C0E958
:1020A00004128161C161FFF765FD002803D0BDE81E
:1020B0001040FEF736BB10BD00380140240200205E
:1020C000FEE7FEF70BFEFEE710B5FEF775FC01F02C
:1020D000B5FF012803D0BDE8104001F0E5BC10BDFC
:1020E00030B58FB028216846FEF793F814210AA86E
:1020F000FEF78FF801210804CDE9001000240294B6
:1021000002250491CDE907504FF4E010099068468C
:10211000FEF7F0FD08B172B6FEE70F20CDE90A0523
:102120004FF48060CDE90C4002210AA80E94FEF71E
:10213000E3FC08B172B6FEE7FEF774FD0FB030BDE8
:10214000704700000148FFF747BA00004C0100202B
:102150000148FFF741BA0000940100200148FFF751
:102160003BBA0000DC010020F0B50268164B174CAA
:10217000174D4FF08047984205D0B84203D0A04297
:1021800001D0A84203D122F070064A683243984237
:1021900005D0B84203D0A04201D0A84203D122F416
:1021A0004074CA6822434C6922F0800222430260D4
:1021B0008A68C2620A688262984201D10969016331
:1021C00001214161F0BD0000002C014000040040ED
:1021D0000008004010B501F01F030121046A994076
:1021E0008C430462016A9A401143016210BD0000F1
:1021F00030B5026A22F001020262026A4368846911
:1022000024F073050C682C4322F002058A682A43E7
:102210000A4DA8420BD122F00805CA6823F4407386
:102220002A434D6922F004021D438B692B4343600E
:10223000846149684163026230BD0000002C0140A6
:1022400030B5026A22F010020262026A43688469B1
:102250000D6824F4E64444EA05248D6822F0200247
:1022600042EA05120B4DA8420ED1CD6822F0800241
:1022700042EA05124D6923F4406343EA85038D6900
:1022800022F0400243EA8503436084614968816328
:10229000026230BD002C014030B5026A22F4807227
:1022A0000262036A4268C46923F4007324F0730570
:1022B0000C682C438D6843EA05230C4DA8420ED1CF
:1022C000CD6823F4006343EA05234D6922F44052AC
:1022D00042EA05128D6923F4806342EA05124260E6
:1022E000C4614968C163036230BD0000002C014035
:1022F00030B5026A22F480520262046A4268C369FD
:102300000D6823F4E64343EA05238D6824F4005462
:1023100044EA0534064DA84204D14D6922F48042B6
:1023200042EA85124260C36149680164046230BDBB
:10233000002C014070B5046A24F001040462846931
:10234000056A0F4EB04208D0B0F1804F05D00D4E57
:10235000B04202D00C4EB04203D124F00304144327
:1023600001E044F001041A0724F0F00444EA126288
:1023700025F00A0301F00A0119438261016270BD70
:10238000002C0140000400400008004030B5046A01
:1023900024F0100404628469056A24F4407444EA59
:1023A000022222F470444FF6FF7202EA0332224303
:1023B000A02425F0A00304EA0111194382610162FF
:1023C00030BD000010B5094C002208212046FEF760
:1023D000E7FA002210212046FEF7E2FA204600220A
:1023E000BDE810402021FEF7DBBA0000000C0140E0
:1023F00010B5406A0021C185C184FFF707FB10BDFD
:102400000168CA6822F49072CA6001684A6922F0C1
:1024100001024A61202180F83A10704710B590F807
:102420003A10222901D0022010BD82684FF4805357
:102430009A4201D1016921B1816A9A421BD04AB105
:102440000AE00268816A5268C2F308020A80816A5F
:10245000891C08E0026972B10268526802F07F02CA
:102460000A70816A491C8162C18D491E0904090CE8
:10247000C18503D016E002685268F1E70168CA68B6
:1024800022F02002CA600168CA6822F48072CA6021
:1024900001684A6922F001024A61202180F83A105D
:1024A000FFF70CFC002010BD70B504460068016900
:1024B000E26821F44051114301612169A068084399
:1024C000616908432168CA6841F20C639A43024378
:1024D000CA6020684169A26921F4407111434161D9
:1024E0001E492068884202D1FEF7B2FB01E0FEF7E8
:1024F0009FFB00EBC00101EB0012606864218000CB
:10250000B2FBF0F3B3FBF1F36FF018067343B2FBC9
:10251000F0F5B2FBF0F605EB8305322303EB05156E
:10252000B5FBF1F5B6FBF1F605F0F00505EB061588
:10253000B2FBF0F6B2FBF0F0B0FBF1F06FF0180276
:10254000504306EB800003EB0010B0FBF1F0216874
:1025500000F00F002844886070BD00000038014082
:1025600010B50848FFF758FA0648FFF750FA202838
:10257000FAD1012204490348FFF776FB0028F8D17D
:1025800010BD0000240200204C000020FEE70907D7
:10259000090E002804DB00F1E02080F800147047E9
:1025A00000F00F0000F1E02080F8141D704702E0F9
:1025B00008C8121F08C1002AFAD1704770470020CE
:1025C00001E001C1121F002AFBD1704710B5094C70
:1025D000012208212046FEF7E3F9142000F03EF81E
:1025E000002208212046FEF7DBF90349002008609D
:1025F00010BD0000000C01401000002010B5094C77
:10260000012210212046FEF7CBF9142000F026F815
:10261000002210212046FEF7C3F90349002008607C
:1026200010BD0000000C01401400002010B5094C42
:10263000012220212046FEF7B3F9142000F00EF805
:10264000002220212046FEF7ABF903490020086054
:1026500010BD0000000C0140180000202DE9F041E1
:102660004FF0E0240546A769FEF7A0F9064605EB02
:10267000C500C500BD420BD9FEF798F9B042FBD0AA
:102680000849781B0844A1698142FCD8BDE8F08163
:102690007D1BA069A842F9D9FEF788F9B042F8D0AD
:1026A000F4E7000040190100FEF78EF9FFF718FD6E
:1026B000FFF76EFBFFF7D8FBFFF772FCFFF7E4FCB8
:1026C000FFF734FCFFF7A6FCFFF77CFE00F092F961
:1026D000002000F07FFE012205490648FFF7C4FAFA
:1026E00000F0CAF9FFF718FB00F0E2F9FEE700007E
:1026F0004C00002024020020DFF884A2DFF884B21E
:10270000A1489AF8001090F8009009EB0100FDF73D
:10271000E8FE4FF0FF363246FDF7CCFEFDF71AFF1C
:1027200005469B489BF80010984C90F8008008EBF9
:102730000100FDF7D6FE3246FDF7BCFEFDF70AFFAD
:102740000746606093492846FDF76EFD0546394609
:102750002060FDF769FD3146FDF72EFE0646A060BC
:1027600029463846FDF7B2FDE0608B488AF80090B4
:102770008BF80080864201DA012016E08648C043CB
:1027800029188648814201D202200EE084488549FA
:102790002844884201D2032007E083488349284423
:1027A000884201D2042000E0052000F03BF9804877
:1027B0006FF0824102687F485318834209D37E4BF1
:1027C0001B680B44834204D37C4B1B681944814231
:1027D00009D26069401C6061052806DB606810F062
:1027E000FF4F20D02DE000206061754D00220221B6
:1027F0002846FEF7D5F8012204212846FEF7D0F836
:10280000002208212846FEF7CBF801221021284695
:10281000FEF7C6F86249A068C943884265DAE068F5
:1028200080F0004078E05B482168814209D1644C27
:10283000012206212046FEF7B3F801221821204686
:1028400093E05D4D5F4B2868984205DB9A4203DBBD
:102850005A4E3168994205DAA069401CA0610528EA
:10286000E5DA88E00023A361574B9A4216DA544C0C
:10287000002202212046FEF793F80122042120467F
:10288000FEF78EF8002208212046FEF789F8012283
:1028900010212046FEF784F84C486AE0FDF776FEEA
:1028A00003D24B4829688142E1DB31682868FDF793
:1028B00077FE60D24648316881425CDA404C0022A3
:1028C00002212046FEF76CF8012204212046FEF783
:1028D00067F8002208212046FEF762F80122102145
:1028E0002046FEF75DF83B4843E02D48216801444F
:1028F0002A488142E06880F0004004D2FDF717FECC
:10290000354A364B04E0FDF712FE4FF03332344BBC
:10291000FDF75EFDFDF71EFE206110F1FF4F09D3AC
:10292000FDF705FE4FF033322E4BFDF751FDFDF75D
:1029300011FE206101462548814202DC2A4881427D
:1029400000D92061606810F0FF4F11D11148216853
:1029500081420DD1002000F03DFD012206212846D4
:10296000FEF71EF8012218212846FEF719F802E0AA
:10297000206900F02FFD322000F064F8C0E600006E
:1029800020000020210000201E0000205C0000200C
:102990001F0000200000A04100004842FFFF7F0010
:1029A000FFFF37BDFFFF4D00FFFFE9BCFFFF310018
:1029B00004000020FFFF6F0100000020080000203D
:1029C0000008014000007041000070420000E84132
:1029D0000000344200000CC29A9999999999E93FF4
:1029E0003333E33F3333F33F000014C20A2000F0D7
:1029F00029F8FBE710B500221E210848FDF7D0FF9B
:102A000000210748FEF76AFF04210548FEF766FF2C
:102A1000BDE8104008210248FEF760BF00080140F1
:102A200004010020064901280A6806D04FF47A63A1
:102A30005843506309688863704741F27070F8E743
:102A40000401002010B5EFF3058149B9EFF31081BF
:102A500031B908490968022905D1EFF3118111B193
:102A60006FF0050403E0002408B100F05FFE20468B
:102A700010BD0000C8000020EFF3058058B9EFF347
:102A8000108040B909490868022801D030B109E036
:102A9000EFF3118030B16FF005007047012008603E
:102AA000002070474FF0FF3070470000C800002042
:102AB00010B5EFF3058060B9EFF3108048B90B490A
:102AC0000868022802D0012806D00BE0EFF311803D
:102AD00040B16FF0050010BD0220086000F08EFECE
:102AE000002010BD4FF0FF3010BD0000C8000020D6
:102AF000F0B585B04FEA01034FF00004EFF3058114
:102B00000394A1BBEFF3108189BB21490968022915
:102B100002D1EFF3118151BB48B3402618218DF843
:102B2000104004AD42B3176807B13D4697691FB125
:102B300039467F1E382F02D21779FF0702D00020B6
:102B400005B0F0BD576907B1BE08D2F808C0BCF1A6
:102B5000000F0DD0D4685C2C18D312693AB137B18C
:102B60008DE806103246294601F03DFA03900DE04B
:102B7000D7685FB912694AB903AACDE90012B2B2A7
:102B8000294601F003FA012800D003940398D7E7FF
:102B9000C80000202DE9F041134C0F460546666938
:102BA0002068001D00F092FC681C07D137B1216835
:102BB000BDE8F0410D48091D00F0D8BC206835443F
:102BC000B5424560216805D2A068BDE8F041091D05
:102BD00000F0B4BC6068091D00F0B0FC206B8542B9
:102BE00000D22563BDE8F08178000020680700204E
:102BF0002DE9F041054600F0C5FC2D4C2069401C34
:102C0000206120682B4F10B1E06930B32BE02560C4
:102C10002069012827D1002606EB860007EB8000FB
:102C200000F07EFC761C382EF6D3234800F078FCAA
:102C30002148143000F074FC1F48283000F070FC6C
:102C40001D483C3000F06CFC1B48503000F068FC24
:102C5000194860601430A06005E02068E96AC06A25
:102C6000884200D82560E06A401CE0626864E86A37
:102C7000A169884200D9A06100EB800007EB8000C9
:102C8000291D00F073FC00F09DFCE06900280CD0C9
:102C90002068E96AC06A884207D208494FF080502C
:102CA0000860BFF34F8FBFF36F8FBDE8F081000066
:102CB00078000020B80200201807002004ED00E092
:102CC00038B500F05FFC104CA068C8B90F4800F0A0
:102CD00027FC0E48143000F023FC0C482060143010
:102CE00060600A4B00202833009003F1500210214D
:102CF0000A2000F0EFFEA06010B105A100F0E0FC9A
:102D0000BDE8384000F05EBCB40000207C07002025
:102D1000546D72510000000030B4026C0B46002A62
:102D20000BD0C1681144C1604468A14201D301685D
:102D3000C16030BC1846FDF753BA30BC70472DE96E
:102D4000F041856B174604460026026C82B1C7B17C
:102D5000E068FDF745FAE168206C091AE160226835
:102D6000914202D26168081AE060022F16D017E083
:102D70002068A8B9606801F0D9F9064600206060B3
:102D80000EE0A068FDF72CFA216CA0680844A06052
:102D90006168884204D32068A06001E005B16D1E1F
:102DA0006D1CA5633046BDE8F08110B5044690F86F
:102DB000590058B101280CD002280FD0502080F3C0
:102DC0001188BFF34F8FBFF36F8FFEE7206B00F0CA
:102DD0000DFC2046BDE8104000F008BC10BD00000E
:102DE00010484FF44061420706D0C01D0D4920F045
:102DF0000700411AC1F540610B4A00230144C2E9B2
:102E000000030839103A21F0070111604B600B6094
:102E10000B1AC0E9001393604FF000405360D0607C
:102E2000704700004C0E0020DC000020144E154CB2
:102E3000A6F29C474FF08058DFF84C9012E000BF9C
:102E400000F0A0FBF068C568281D00F03FFB20697A
:102E5000401E2061E068401EE06000F0B3FB2846A1
:102E6000FFF7A3FFE0680028EAD138680128F9D904
:102E7000C9F80080BFF34F8FBFF36F8FF2E70000F8
:102E8000540700207800002004ED00E070B51D46D6
:102E9000049C51B1C4F80020C4E90F01012120466F
:102EA00000F04CFE84F84C5070BD2460F4E72DE92E
:102EB000F0470E46DDE9098417468246910099469F
:102EC000089DA522206BFDF79DF96FF00301206B93
:102ED00001EB8701084420F00707780707D050204E
:102EE00080F31188BFF34F8FBFF36F8FFEE7221877
:102EF000315C82F83410315C11B1401C1028F6D3DB
:102F0000002684F84360382D00D33725E562C4E9F4
:102F10001356201D00F00FFB04F1180000F00BFB0E
:102F20002461C5F138006462A061666584F8586068
:102F30004A465146384600F03BFA2060B8F1000F8F
:102F400001D0C8F80040BDE8F087000030B5114955
:102F500000E011460A688242FBD34B685C18844249
:102F600003D1406818444860084643681C189442DE
:102F700009D1084C103C2468A24209D052681A4476
:102F800042600A6812680260814200D0086030BD69
:102F90000460F9E7DC00002070B5002441600B4DAF
:102FA0000061914206D8D11A8269914206D2011D70
:102FB000686807E09A4203D2994201D3012403E0F2
:102FC000011D286800F0BAFA204670BDB400002048
:102FD00010B5044600F0D6FAA06B28B15FF00004EB
:102FE00000F0F0FA204610BD0124F9E730B589B0B1
:102FF000304D55E00498002806DADDE90601059A0F
:103000009047049800284BDB069C606910B1201D96
:1030100000F05CFA02A800F0B9F8024604980A2809
:103020003ED2DFE800F00505053D263705053D26C3
:103030000598A169034601442046FFF7ADFF00B3A0
:10304000616A20468847E069012829D10020009064
:103050000598A169002342181946204601F070F92D
:1030600078B9502080F31188BFF34F8FBFF36F8F73
:10307000FEE70598A06128B1811813462046FFF7A6
:103080008BFF0DE0502080F31188BFF34F8FBFF30B
:103090006F8FFEE794F82C0010B9204600F0A6FAD6
:1030A000002204A9A86800F09BFE0028A2D109B064
:1030B00030BD0000B40000202DE9FC410F4605465C
:1030C00000F0E0FB01A800F061F80446019818B197
:1030D00001F0A4F8BDE8FC81224EAFB17068006831
:1030E000A8B30027291B3A46B06800F0FDFA01F0AA
:1030F00095F80028EED11C494FF080500860BFF3CE
:103100004F8FBFF36F8FE5E7A542EBD801F086F84C
:1031100030682746C068C468201D00F0D7F9E06910
:10312000012810D1A0692B4641193A462046FFF7E5
:1031300033FF40B100200346014600902A46204656
:1031400001F0FEF820B1616A20468847C2E707E037
:10315000502080F31188BFF34F8FBFF36F8FFEE7CE
:103160000127BFE7B400002004ED00E006484168F5
:10317000096829B14168C968C9684968016370472D
:103180004FF0FF31FAE700007800002070B50546E7
:1031900000F062FF064E04463069844203D200F01C
:1031A00009F8012000E0002028602046346170BD4D
:1031B000B4000020F8B5194D1FE0C068C468066867
:1031C000201D00F083F9616A20468847E0690128E4
:1031D00013D1A0693044B04206D924616060211D3A
:1031E000286800F0ABF908E0002003460146009093
:1031F0003246204601F0A4F838B128680168002959
:10320000DBD16968C5E90010F8BD502080F3118852
:10321000BFF34F8FBFF36F8FFEE70000B4000020B5
:1032200008484068401C4FF0500080F3118804D0DB
:10323000BFF34F8FBFF36F8FFEE7BFF34F8FBFF327
:103240006F8FFEE7E4000020074C2068016841B161
:10325000C0680021D0F80000FFF72EFFFFF7C6FE80
:10326000F3E701210020F7E7B40000202DE9F04149
:10327000044600F087F994F9455004F1240609E06A
:10328000606A48B1304600F091FF08B100F07CFA66
:103290006D1E6DB2002DF3DC4FF0FF3684F84560F3
:1032A00000F090F900F06EF994F9445004F1100721
:1032B00009E0206948B1384600F078FF08B100F015
:1032C00063FA6D1E6DB2002DF3DC84F84460BDE836
:1032D000F04100F077B900002DE9F04105460027E4
:1032E00000F0D0FA314E306808B9FFF779FDF06888
:1032F00005424BD1C5B3083568070ED005F007006D
:10330000C0F108000544680707D0502080F31188F9
:10331000BFF34F8FBFF36F8FFEE72DB37068854209
:1033200034D82248103001460C6801E020460C4693
:103330006168A94202D221680029F7D131688C4224
:1033400024D007682168016060680837411B102994
:103350000FD96019420708D0502080F31188BFF3BD
:103360004F8FBFF36F8FFEE710E041606560FFF79E
:10337000EDFD61687068401A7060B268904200D2DA
:10338000B060F06801430020C4E9000100F046FF8E
:10339000780707D0502080F31188BFF34F8FBFF319
:1033A0006F8FFEE73846BDE8F0810000CC000020BA
:1033B00010B5031F4FF080741C601B1F21F001012A
:1033C0001960191F024B0B60143940380A6010BD98
:1033D0002132000810B50749FCF77EFF0649FCF7CB
:1033E000ADFFFDF78BF8054900F2DC500968C863B2
:1033F00010BD00000000FA43000034420401002028
:103400002A4CDFF8ACB02B4DDFF8AC902B4E4FF0D0
:10341000000A7088010444D5C7B22948D84614224E
:10342000077084F800A085F800A08BF800A089F848
:1034300000A024492448FCF7D3FE0020224B06E0DC
:10344000195C2C2902D1217841B12870401CB84266
:10345000F6DB2178424628789E460CE02070F5E79E
:1034600013781EF801C003EB83086FF02F0303EB02
:10347000480363441370491C8142F1DB49466FF0F5
:103480002F0209E091F800C01EF800300CEB8C0C04
:1034900002EB4C0C63440B70401CB842F2DBA6F804
:1034A00002A00A20FFF7CEFAB3E700001C000020BC
:1034B0001E0000201D0000201F0000204C000020E6
:1034C0000C00002064020020F0000020D0E901324E
:1034D00001699A60D0E901235A604A68824201D1A9
:1034E00082684A60002202610868401E086008681D
:1034F00070470000034B036003F15C00086040204C
:103500001060704794080020044B036003F15C00D6
:1035100008604FF48070106070470000F0090020D0
:1035200000F108014FF0FF32C0E90112C1600161F2
:1035300000210160704700210161704730B50B68C0
:103540005A1C02D000F1080202E0026904E022469F
:10355000546825689D42FAD953684B6099608A6027
:10356000516008610168491C016030BD42684A60D1
:1035700093688B6093685960916008610168491C89
:1035800001607047502080F31188BFF34F8FBFF365
:103590006F8F0A494868401C486001280CD10848D0
:1035A000006810F0FF0F07D0502080F31188BFF3A0
:1035B0004F8FBFF36F8FFEE770470000E4000020DD
:1035C00004ED00E00849486828B1401E486001D178
:1035D00080F311887047502080F31188BFF34F8F1C
:1035E000BFF36F8FFEE70000E400002070B50028F5
:1035F00027D0144DA0F108046168E868014207D1A2
:10360000502080F31188BFF34F8FBFF36F8FFEE719
:1036100022683AB1502080F31188BFF34F8FBFF377
:103620006F8FFEE78143616000F02CF96068696884
:10363000084468602046FFF789FCBDE8704000F050
:10364000EDBD70BDCC0000204FF0E02000210161F5
:10365000816105494FF47A720968B1FBF2F1491EA4
:1036600041610721016170474800002010B5FCF757
:1036700091FD114910280ED300F1E02090F8F003DD
:103680000A78904207D2502080F31188BFF34F8F01
:10369000BFF36F8FFEE709480068896800F4E060B7
:1036A000884207D9502080F31188BFF34F8FBFF3B2
:1036B0006F8FFEE710BD0000E40000200CED00E07D
:1036C00010B5084B002200BF53F832401CB1521C09
:1036D000082AF9D310BD43F8321003EBC201486049
:1036E00010BD00007802002070B515460E46044655
:1036F000FFF748FF94F944100020491C01D184F8D9
:10370000440094F94510491C01D184F84500FFF7A5
:1037100059FFA06B28B92A46314604F1240000F075
:1037200051F82046BDE87040FFF7A0BD10B502007B
:1037300014D00F48806B38B1502080F31188BFF34C
:103740004F8FBFF36F8FFEE700F09CF8002110460B
:10375000FFF720FA00F062FD002807D105494FF07D
:1037600080500860BFF34F8FBFF36F8F10BD000014
:103770007800002004ED00E002498A6A026049698D
:10378000416070477800002001490120486270477D
:103790007800002010B50C4650B10949096818316D
:1037A000FFF7CCFE2046BDE810400121FFF7F2B93B
:1037B000502080F31188BFF34F8FBFF36F8FFEE768
:1037C0007800002070B514460D4668B10A490968B2
:1037D0001831FFF7CBFE0CB14FF0FF3521462846DC
:1037E000BDE87040FFF7D6B9502080F31188BFF3D1
:1037F0004F8FBFF36F8FFEE77800002030B587B0A2
:103800000024039405AA04A903A80494FFF772FEF8
:10381000DDE903010094CDE90110002315A117484B
:10382000059A00F0E0FB164D002868631FD000F0F9
:1038300057FD012809D0401C19D1502080F3118870
:10384000BFF34F8FBFF36F8FFEE7502080F31188D7
:10385000BFF34F8FBFF36F8F4FF0FF30286301200E
:10386000E8616C6107B0BDE8304000F0C9B807B04E
:1038700030BD000049444C45000000002D2E0008DA
:10388000780000200248816B491C8163704700006A
:1038900078000020164810B5816B11B101214162FA
:1038A00010BD002141628169124A01E0B9B1491E8F
:1038B00001EB810352F82330002BF7D001EB810399
:1038C00002EB830202F1080453685B685360A34271
:1038D00001D15B685360DA680260816110BD5020DD
:1038E00080F31188BFF34F8FBFF36F8FFEE70000A7
:1038F00078000020B8020020DFF8CC90DFF8CCA0E0
:103900004FF0333B324D334FDFF8CC800026334C41
:10391000FEF75CFE2078010614D53149A2888006A6
:1039200002EB90200860FCF7DCFD5A462D4BFCF7BB
:103930004FFDFCF70FFEC9F80000A84201DAC9F8F4
:10394000007026706420FEF789FEFEF757FE60784F
:10395000010614D52449E288800602EB9020086015
:10396000FCF7BFFD5A461F4BFCF732FDFCF7F2FD9A
:10397000CAF80000A84201DACAF800706670642034
:10398000FEF76CFEFEF752FEA078010614D517492B
:103990002289800602EB90200860FCF7A2FD5A46BF
:1039A000104BFCF715FDFCF7D5FDC8F80000A84248
:1039B00001DAC8F80070A6706420FEF74FFE0520FB
:1039C000FFF740F8A4E700000000002004000020FA
:1039D0000000E04000002A430800002050000020C2
:1039E000100000203333FB3F14000020180000209B
:1039F0000120FFF727F8FBE70120FFF723F8FBE79B
:103A00001CB5264908780190FF20087008788DF8C9
:103A100000009DF800009DF8002000F0F0009042AA
:103A200007D0502080F31188BFF34F8FBFF36F8F03
:103A3000FEE79DF800001A4B00F0500018700720B8
:103A4000986005E09DF8002052008DF80020401E8F
:103A50009DF800201206F5D49860032807D0502066
:103A600080F31188BFF34F8FBFF36F8FFEE74FF4E2
:103A700040709860019808700A48016841F470012C
:103A80000160016841F070410160FFF7DDFD002039
:103A90005860FCF749FB00201CBD000000E400E07A
:103AA000E400002020ED00E010B5502080F31188E4
:103AB000BFF34F8FBFF36F8F00F0D4FA18B10449F2
:103AC0004FF080500860002080F3118810BD000086
:103AD00004ED00E038B5049D18B153B1CAB181B10D
:103AE00020E0502080F31188BFF34F8FBFF36F8F1A
:103AF000FEE7502080F31188BFF34F8FBFF36F8F25
:103B0000FEE7502080F31188BFF34F8FBFF36F8F14
:103B1000FEE739B1502080F31188BFF34F8FBFF318
:103B20006F8FFEE750241C46012384F846302B4655
:103B30000094FFF7ABF9204638BD000070B50D4684
:103B4000040025D0FFF71EFDD4E90F20216802FBF9
:103B5000001161600021A1632168A1600A46D4E9D7
:103B60000F01401E00FB0121E16021464FF0FF30B4
:103B700001F8440F487004F110008DB1FFF7D0FC3C
:103B800004F12400FFF7CCFCFFF71CFD012070BD01
:103B9000502080F31188BFF34F8FBFF36F8FFEE784
:103BA00021690029F0D000F001FB0028ECD0044985
:103BB0004FF080500860BFF34F8FBFF36F8FE3E784
:103BC00004ED00E02DE9FF4782B01D468A464FF024
:103BD0000008040003D0BAF1000F08D011E0502013
:103BE00080F31188BFF34F8FBFF36F8FFEE7206C18
:103BF00038B1502080F31188BFF34F8FBFF36F8F20
:103C0000FEE7022D0AD1E06B012807D0502080F397
:103C10001188BFF34F8FBFF36F8FFEE700F00EFAEE
:103C20003F4F4FF000094FF0805648B9049838B123
:103C3000502080F31188BFF34F8FBFF36F8FFEE7E3
:103C4000FFF7A0FCA06BE16B884207D3022D05D0E3
:103C50000498D0B1B8F1000F1AD01EE02A465146A0
:103C60002046FFF76CF8616A19B104F1240000F0F6
:103C70009DFA20B13E60BFF34F8FBFF36F8FFFF708
:103C8000A1FC012006B0BDE8F087FFF79BFC22E015
:103C90006846FFF771FD4FF00108FFF793FCFFF74F
:103CA000F1FDFFF76FFC94F94400401C01D184F84A
:103CB000449094F94500401C01D184F84590FFF7E9
:103CC00081FC04A9684600F027F930B12046FFF7CF
:103CD000CDFA00F0A3FA0020D4E7FFF753FCA06B65
:103CE000E16B884213D1FFF76DFC04F110000499D9
:103CF000FFF750FD2046FFF7B9FA00F08FFA0028D1
:103D00009ED13E60BFF34F8FBFF36F8F98E7FFF7F1
:103D100059FC2046FFF7AAFA00F080FA90E700006D
:103D200004ED00E02DE9F0471F4690468946040067
:103D300003D0B9F1000F08D011E0502080F31188B2
:103D4000BFF34F8FBFF36F8FFEE7206C38B1502069
:103D500080F31188BFF34F8FBFF36F8FFEE7022F01
:103D60000AD1E06B012807D0502080F31188BFF3FF
:103D70004F8FBFF36F8FFEE7FFF778FC5020EFF314
:103D8000118680F31188BFF34F8FBFF36F8FA06B45
:103D9000E16B884206D3022F04D0002086F31188FD
:103DA000BDE8F08794F945503A4649462046FEF76B
:103DB000C6FF681C04D06D1C84F845500120EDE757
:103DC000606A0028FAD004F1240000F0EFF900281E
:103DD000F4D0B8F1000FF1D00121C8F80010EDE7E0
:103DE0002DE9F747002683B08A46040003D0BAF1D4
:103DF000000F08D011E0502080F31188BFF34F8FDF
:103E0000BFF36F8FFEE7206C38B1502080F311882C
:103E1000BFF34F8FBFF36F8FFEE700F00FF9DFF8AE
:103E2000F4804FF000094FF0805748B9059838B139
:103E3000502080F31188BFF34F8FBFF36F8FFEE7E1
:103E4000FFF7A0FBA56BC5B151462046FEF764FF06
:103E50006D1EA563206950B104F1100000F0A6F9B1
:103E600028B1C8F80070BFF34F8FBFF36F8FFFF713
:103E7000A9FB012006B0BDE8F087059808B11EB186
:103E800006E0FFF79FFB27E06846FFF775FC012679
:103E9000FFF798FBFFF7F6FCFFF774FB94F944007B
:103EA000401C01D184F8449094F94500401C01D194
:103EB00084F84590FFF786FB05A9684600F02CF8CA
:103EC000002820460AD0FFF7D1F900F0A7F92046D4
:103ED000FFF77EF80028B3D00020CBE7FFF778F893
:103EE00090B104F124000599FFF754FC2046FFF738
:103EF000BDF900F093F90028A2D1C8F80070BFF313
:103F00004F8FBFF36F8F9BE72046FFF7AFF900F0AD
:103F100085F995E704ED00E02DE9F0410C46050038
:103F200011D0C4B1FFF72EFB174B5A696E68206899
:103F3000911B471C17D02F689B6A9F4219D096424D
:103F400017D8012410E0502080F31188BFF34F8F61
:103F5000BFF36F8FFEE7502080F31188BFF34F8FC0
:103F6000BFF36F8FFEE70024FFF72CFB2046BDE870
:103F7000F081884205D9401A20602846FFF7FCFBF3
:103F8000F1E700202060DCE7780000202DE9FF5FEA
:103F90008346DDE90E87994616468A469000FFF76C
:103FA0009BF905001CD05C20FFF796F9040014D0A3
:103FB0000020256384F85900CDE90240CDE900874F
:103FC0004B46324651465846FEF771FF2046FEF7F3
:103FD0000FFE012004B0BDE8F09F2846FFF706FB66
:103FE0004FF0FF30F6E7F0B585B0DDE90B640A9DD0
:103FF000A6B1DCB15C2700972663022684F85960DD
:10400000002604AFCDE90246CDE90057FEF74FFF89
:104010002046FEF7EDFD049805B0F0BD502080F37A
:104020001188BFF34F8FBFF36F8FFEE7502080F3EF
:104030001188BFF34F8FBFF36F8FFEE70548C1694B
:1040400019B1806B18B10020704701207047022021
:104050007047000078000020014840697047000068
:10406000780000202DE9F0412E4C0027A06B40B1D4
:10407000206A401C2062606A00B101273846BDE812
:10408000F0816669761C666113D16068006838B19A
:10409000502080F31188BFF34F8FBFF36F8FFEE77F
:1040A0006068A1686160A060A06A401CA062FFF720
:1040B0005DF8206BDFF87080864209D36068006885
:1040C00080B16068C068C568686886420DD22063A8
:1040D0002068C06A00EB800158F821000128CAD985
:1040E0000127C8E74FF0FF30F1E7281DFFF7EEF991
:1040F000A86A18B105F11800FFF7E8F9E86AA169A4
:10410000884200D9A06100EB800108EB8100291DE5
:10411000FFF72CFAE86A2168C96A8842CED30127E2
:10412000CCE7000078000020B802002070B5040041
:104130004FF0000133D01B4D2868844207D0502037
:1041400080F31188BFF34F8FBFF36F8FFEE7206DB1
:1041500038B1401E2065E36CE26A9A421FD040B13C
:104160001DE0502080F31188BFF34F8FBFF36F8F96
:10417000FEE7201DFFF7AAF9E06CE062C0F138000D
:10418000A061E06AA969884200D9A861064900EBEC
:10419000800001EB8000211DFFF7E8F901210846AE
:1041A00070BD000078000020B802002070B5C06823
:1041B000C46854B104F118000646FFF787F9144D9E
:1041C000A86B50B13146134815E0502080F3118898
:1041D000BFF34F8FBFF36F8FFEE7201DFFF776F918
:1041E000E06AA969884200D9A8610B4900EB800008
:1041F00001EB8000211DFFF7B9F9E06A2968C96A5F
:10420000884202D90120686270BD002070BD0000A4
:104210007800002040070020B80200202DE9F04778
:104220002C4D00242746A86B38B1FFF7ABF9A86BDB
:10423000401EA863A86B40B146E0502080F311886F
:10424000BFF34F8FBFF36F8FFEE72969224E012026
:10425000D1B3A6F5916980463068E0B1F068C468D2
:1042600004F11800FFF732F9201DFFF72FF9E06A7B
:10427000A969884200D9A86100EB800109EB81009F
:10428000211DFFF773F9E06A2968C96A8842E3D300
:10429000C5F82480E0E70CB1FEF768FF2C6A4CB14A
:1042A0004FEA0806FFF7DEFE00B16E62641EF9D128
:1042B00000202862686A38B1084901273807086079
:1042C000BFF34F8FBFF36F8FFFF77CF93846BDE820
:1042D000F0870000780000204007002004ED00E097
:1042E00010B586B0FEF7ECFC114CA068B8B1002008
:1042F0000390049005AA04A903A8FFF705F9DDE9D6
:10430000032102208DE8070000230AA10B48059A2B
:10431000FFF769FEE06010B106B0012010BD50202B
:1043200080F31188BFF34F8FBFF36F8FFEE700005C
:10433000B4000020546D72205376630049320008A7
:104340002DE9FF411E46134602000A9D4FF0000072
:1043500016D0144CA768002F0FD0CDE9001302929D
:10436000062917DAFFF76AFE02284FF000030FD084
:1043700000226946A068FFF725FC04B0BDE8F08183
:10438000502080F31188BFF34F8FBFF36F8FFEE78C
:104390002A46EEE70023324669463846FFF7C2FC5C
:1043A000EBE70000B4000020B44400080000000067
:1043B00000000000000000000000000000020000FB
:1043C0001800000000000000000000009C440008ED
:1043D00000000000000000000000000000000000DD
:1043E00000010000190000000000000000000000B3
:1043F00098440008000000000000000000000000D9
:10440000000000000002000020000000000000008A
:1044100000000000A44400080000000000000000AC
:104420000000000000000000000200001900000071
:104430000000000000000000C4440008000000006C
:10444000000000000000000000000000000100006B
:10445000190000000000000000000000CC4400082B
:10446000000000000000000000000000000000004C
:104470000001000019000000000000000000000022
:104480000000000000000000010203040607080904
:104490000000000001020304757762007761766511
:1044A000000000006D61696E5F636F6E74726F6C07
:1044B000000000006D6F746F725F636F6E74726FD7
:1044C0006C000000776176656D00000077617665AD
:1044D00072000000F444000800000020F00000001A
:1044E000AE250008E4450008F0000020601D000033
:1044F000BE250008000000000000000000000000D1
:1045000000000000000000000000000000000000AB
:10451000000000000000000000000000000000009B
:10452000000000000000000000000000000000008B
:104530000100000010000000000000000024F40052
:10454000000000000000000000000000000000006B
:10455000000000000000000000000000000000005B
:10456000000000000000000000000000000000004B
:10457000000000000000000000000000000000003B
:10458000000000000000000000000000000000002B
:10459000000000000000000000000000000000001B
:1045A000000000000000000000000000000000000B
:1045B00000000000000000000000000000000000FB
:1045C00000000000000000000000000000000000EB
:1045D000000000000000000000000000AAAAAAAA33
:0445E00000000000D7
:04000005080000ED02
:00000001FF
